:100000000C9434000C9451000C9451000C94510049
:100010000C9451000C9451000C9451000C9451001C
:100020000C9451000C9451000C9451000C9451000C
:100030000C9451000C9451000C9451000C945100FC
:100040000C94AF000C9451000C9451000C9451008E
:100050000C9451000C9451000C9451000C945100DC
:100060000C9451000C94510011241FBECFEFD8E026
:10007000DEBFCDBF11E0A0E0B1E0EAE9F2E002C0EE
:1000800005900D92A030B107D9F711E0A0E0B1E0E2
:1000900001C01D92A930B107E1F70E943C010C9408
:1000A0004B010C9400008FEF8AB984B98FE387B9B4
:1000B0000895EF92FF920F931F931BB815B818B8CD
:1000C0008CE291E00E94F70015E51BB915B918B94B
:1000D0008CE291E00E94F7001BB815B818B88CE2CA
:1000E00091E00E94F7001BB915B918B98CE291E0B4
:1000F0000E94F7001BB815B818B88CE291E00E9476
:10010000F7000FEF0BB905B99FE3F92EF8B88CE2B1
:1001100091E00E94F7001AEA1BB915B98AE6E82EA9
:10012000E8B88CE291E00E94F7000BB905B9F8B885
:100130008CE291E00E94F7001BB915B9E8B88CE297
:1001400091E00E94F7000BB905B9F8B88CE291E094
:100150000E94F7001F910F91FF90EF9008951F925A
:100160000F920FB60F9211242F933F938F939F936B
:10017000AF93BF938091040190910501A091060176
:10018000B0910701309108010196A11DB11D232FE7
:100190002D5F2D3720F02D570196A11DB11D209305
:1001A00008018093040190930501A0930601B09388
:1001B00007018091000190910101A0910201B0918D
:1001C00003010196A11DB11D8093000190930101CF
:1001D000A0930201B0930301BF91AF919F918F91C2
:1001E0003F912F910F900FBE0F901F901895019780
:1001F00039F0880F991F880F991F02970197F1F71F
:100200000895789484B5826084BD84B5816084BD8E
:1002100085B5826085BD85B5816085BDEEE6F0E07F
:10022000808181608083E1E8F0E0108280818260DB
:100230008083808181608083E0E8F0E0808181605C
:100240008083E1EBF0E0808184608083E0EBF0E08C
:10025000808181608083EAE7F0E080818460808330
:1002600080818260808380818160808380818068DA
:1002700080831092C1000895CF93DF930E94010103
:100280000E945300C0E0D0E00E9459002097E1F3A3
:0A0290000E940000F9CFF894FFCFA0
:00000001FF
